{
    "contractName": "Lottery",
    "abi": [
        {
            "inputs": [
                {
                    "internalType": "address",
                    "name": "_priceFeed",
                    "type": "address"
                }
            ],
            "stateMutability": "nonpayable",
            "type": "constructor"
        },
        {
            "anonymous": false,
            "inputs": [
                {
                    "indexed": true,
                    "internalType": "address",
                    "name": "previousOwner",
                    "type": "address"
                },
                {
                    "indexed": true,
                    "internalType": "address",
                    "name": "newOwner",
                    "type": "address"
                }
            ],
            "name": "OwnershipTransferred",
            "type": "event"
        },
        {
            "inputs": [],
            "name": "endLottery",
            "outputs": [],
            "stateMutability": "nonpayable",
            "type": "function"
        },
        {
            "inputs": [],
            "name": "enter",
            "outputs": [],
            "stateMutability": "payable",
            "type": "function"
        },
        {
            "inputs": [],
            "name": "getEntranceFee",
            "outputs": [
                {
                    "internalType": "uint256",
                    "name": "",
                    "type": "uint256"
                }
            ],
            "stateMutability": "view",
            "type": "function"
        },
        {
            "inputs": [],
            "name": "lottery_state",
            "outputs": [
                {
                    "internalType": "enum Lottery.LOTTERY_STATE",
                    "name": "",
                    "type": "uint8"
                }
            ],
            "stateMutability": "view",
            "type": "function"
        },
        {
            "inputs": [],
            "name": "owner",
            "outputs": [
                {
                    "internalType": "address",
                    "name": "",
                    "type": "address"
                }
            ],
            "stateMutability": "view",
            "type": "function"
        },
        {
            "inputs": [
                {
                    "internalType": "uint256",
                    "name": "",
                    "type": "uint256"
                }
            ],
            "name": "players",
            "outputs": [
                {
                    "internalType": "address payable",
                    "name": "",
                    "type": "address"
                }
            ],
            "stateMutability": "view",
            "type": "function"
        },
        {
            "inputs": [],
            "name": "renounceOwnership",
            "outputs": [],
            "stateMutability": "nonpayable",
            "type": "function"
        },
        {
            "inputs": [],
            "name": "startLottery",
            "outputs": [],
            "stateMutability": "nonpayable",
            "type": "function"
        },
        {
            "inputs": [
                {
                    "internalType": "address",
                    "name": "newOwner",
                    "type": "address"
                }
            ],
            "name": "transferOwnership",
            "outputs": [],
            "stateMutability": "nonpayable",
            "type": "function"
        },
        {
            "inputs": [],
            "name": "usdEntryFee",
            "outputs": [
                {
                    "internalType": "uint256",
                    "name": "",
                    "type": "uint256"
                }
            ],
            "stateMutability": "view",
            "type": "function"
        }
    ],
    "bytecode": "608060405234801561001057600080fd5b5060405161087d38038061087d83398101604081905261002f916100d8565b61003f61003a610084565b610088565b6802b5e3af16b1880000600255600380546001600160a01b0319166001600160a01b038316178082556001919060ff60a01b1916600160a01b83021790555050610106565b3390565b600080546001600160a01b038381166001600160a01b0319831681178455604051919092169283917f8be0079c531659141344cd1fd0a4f28419497f9722a3daafe3b4186f6b6457e09190a35050565b6000602082840312156100e9578081fd5b81516001600160a01b03811681146100ff578182fd5b9392505050565b610768806101156000396000f3fe6080604052600436106100915760003560e01c806388ab139a1161005957806388ab139a146101245780638da5cb5b14610139578063e97dcb621461015b578063f2fde38b14610163578063f71d96cb1461018357610091565b806309bc33a7146100965780631593a8c7146100c1578063160344e2146100d8578063715018a6146100ed5780638144799914610102575b600080fd5b3480156100a257600080fd5b506100ab6101a3565b6040516100b891906106de565b60405180910390f35b3480156100cd57600080fd5b506100d6610272565b005b3480156100e457600080fd5b506100d6610274565b3480156100f957600080fd5b506100d6610316565b34801561010e57600080fd5b5061011761035f565b6040516100b891906105dd565b34801561013057600080fd5b506100ab61036f565b34801561014557600080fd5b5061014e610375565b6040516100b891906105c9565b6100d6610384565b34801561016f57600080fd5b506100d661017e366004610534565b610426565b34801561018f57600080fd5b5061014e61019e366004610562565b610497565b600080600360009054906101000a90046001600160a01b03166001600160a01b031663feaf968c6040518163ffffffff1660e01b815260040160a06040518083038186803b1580156101f457600080fd5b505afa158015610208573d6000803e3d6000fd5b505050506040513d601f19601f8201168201806040525081019061022c919061057a565b5050509150506000816402540be4006102459190610707565b9050600081600254670de0b6b3a76400006102609190610707565b61026a91906106e7565b935050505090565b565b61027c6104c1565b6001600160a01b031661028d610375565b6001600160a01b0316146102bc5760405162461bcd60e51b81526004016102b3906106a9565b60405180910390fd5b6001600354600160a01b900460ff1660028111156102ea57634e487b7160e01b600052602160045260246000fd5b146103075760405162461bcd60e51b81526004016102b390610674565b6003805460ff60a01b19169055565b61031e6104c1565b6001600160a01b031661032f610375565b6001600160a01b0316146103555760405162461bcd60e51b81526004016102b3906106a9565b61027260006104c5565b600354600160a01b900460ff1681565b60025481565b6000546001600160a01b031690565b6000600354600160a01b900460ff1660028111156103b257634e487b7160e01b600052602160045260246000fd5b146103bc57600080fd5b6103c46101a3565b3410156103e35760405162461bcd60e51b81526004016102b390610605565b6001805480820182556000919091527fb10e2d527612073b26eecdfd717e6a320cf44b4afac2b0732d9fcbe2b7fa0cf60180546001600160a01b03191633179055565b61042e6104c1565b6001600160a01b031661043f610375565b6001600160a01b0316146104655760405162461bcd60e51b81526004016102b3906106a9565b6001600160a01b03811661048b5760405162461bcd60e51b81526004016102b39061062e565b610494816104c5565b50565b600181815481106104a757600080fd5b6000918252602090912001546001600160a01b0316905081565b3390565b600080546001600160a01b038381166001600160a01b0319831681178455604051919092169283917f8be0079c531659141344cd1fd0a4f28419497f9722a3daafe3b4186f6b6457e09190a35050565b805169ffffffffffffffffffff8116811461052f57600080fd5b919050565b600060208284031215610545578081fd5b81356001600160a01b038116811461055b578182fd5b9392505050565b600060208284031215610573578081fd5b5035919050565b600080600080600060a08688031215610591578081fd5b61059a86610515565b94506020860151935060408601519250606086015191506105bd60808701610515565b90509295509295909350565b6001600160a01b0391909116815260200190565b60208101600383106105ff57634e487b7160e01b600052602160045260246000fd5b91905290565b6020808252600f908201526e4e6f7420656e6f756768204554482160881b604082015260600190565b60208082526026908201527f4f776e61626c653a206e6577206f776e657220697320746865207a65726f206160408201526564647265737360d01b606082015260800190565b6020808252818101527f4469646e277420737461727420746865206e6577206c6f747465727920796574604082015260600190565b6020808252818101527f4f776e61626c653a2063616c6c6572206973206e6f7420746865206f776e6572604082015260600190565b90815260200190565b60008261070257634e487b7160e01b81526012600452602481fd5b500490565b600081600019048311821515161561072d57634e487b7160e01b81526011600452602481fd5b50029056fea26469706673582212204f3a731adbe1b5dbff5ba2e4d5d9aa0c5c25f11c11d2e3dddce4a5068bbbcfe964736f6c63430008000033",
    "sourcePath": "/Users/brentb/Documents/Github/smartcontract-lottery/smartcontract-lottery/contracts/Lottery.sol",
    "compiler": {
        "name": "solc",
        "version": "0.8.0+commit.c7dfd78e"
    },
    "functionHashes": {
        "endLottery()": "1593a8c7",
        "enter()": "e97dcb62",
        "getEntranceFee()": "09bc33a7",
        "lottery_state()": "81447999",
        "owner()": "8da5cb5b",
        "players(uint256)": "f71d96cb",
        "renounceOwnership()": "715018a6",
        "startLottery()": "160344e2",
        "transferOwnership(address)": "f2fde38b",
        "usdEntryFee()": "88ab139a"
    },
    "gasEstimates": {
        "creation": {
            "codeDepositCost": "379200",
            "executionCost": "infinite",
            "totalCost": "infinite"
        },
        "external": {
            "endLottery()": "167",
            "enter()": "infinite",
            "getEntranceFee()": "infinite",
            "lottery_state()": "1166",
            "owner()": "1092",
            "players(uint256)": "2126",
            "renounceOwnership()": "23571",
            "startLottery()": "22815",
            "transferOwnership(address)": "23730",
            "usdEntryFee()": "1028"
        }
    }
}